{
  "_format": "hh-sol-artifact-1",
  "contractName": "CredentialRegistry",
  "sourceName": "contracts/CredentialRegistry.sol",
  "abi": [
    {
      "anonymous": false,
      "inputs": [
        {
          "indexed": true,
          "internalType": "bytes32",
          "name": "seriesId",
          "type": "bytes32"
        },
        {
          "indexed": false,
          "internalType": "uint256",
          "name": "version",
          "type": "uint256"
        },
        {
          "indexed": false,
          "internalType": "string",
          "name": "cid",
          "type": "string"
        },
        {
          "indexed": false,
          "internalType": "bytes32",
          "name": "contentHash",
          "type": "bytes32"
        }
      ],
      "name": "Issued",
      "type": "event"
    },
    {
      "anonymous": false,
      "inputs": [
        {
          "indexed": true,
          "internalType": "bytes32",
          "name": "seriesId",
          "type": "bytes32"
        },
        {
          "indexed": false,
          "internalType": "uint256",
          "name": "version",
          "type": "uint256"
        }
      ],
      "name": "Revoked",
      "type": "event"
    },
    {
      "anonymous": false,
      "inputs": [
        {
          "indexed": true,
          "internalType": "bytes32",
          "name": "seriesId",
          "type": "bytes32"
        },
        {
          "indexed": false,
          "internalType": "uint256",
          "name": "version",
          "type": "uint256"
        },
        {
          "indexed": false,
          "internalType": "string",
          "name": "cid",
          "type": "string"
        },
        {
          "indexed": false,
          "internalType": "bytes32",
          "name": "contentHash",
          "type": "bytes32"
        }
      ],
      "name": "Upgraded",
      "type": "event"
    },
    {
      "inputs": [
        {
          "internalType": "bytes32",
          "name": "seriesId",
          "type": "bytes32"
        },
        {
          "internalType": "string",
          "name": "cid",
          "type": "string"
        },
        {
          "internalType": "bytes32",
          "name": "contentHash",
          "type": "bytes32"
        }
      ],
      "name": "addVersion",
      "outputs": [],
      "stateMutability": "nonpayable",
      "type": "function"
    },
    {
      "inputs": [
        {
          "internalType": "bytes32",
          "name": "seriesId",
          "type": "bytes32"
        },
        {
          "internalType": "uint256",
          "name": "version",
          "type": "uint256"
        }
      ],
      "name": "getVersion",
      "outputs": [
        {
          "internalType": "bytes32",
          "name": "contentHash",
          "type": "bytes32"
        },
        {
          "internalType": "string",
          "name": "cid",
          "type": "string"
        },
        {
          "internalType": "uint256",
          "name": "issuedAt",
          "type": "uint256"
        },
        {
          "internalType": "bool",
          "name": "revoked",
          "type": "bool"
        },
        {
          "internalType": "address",
          "name": "issuer",
          "type": "address"
        },
        {
          "internalType": "address",
          "name": "subject",
          "type": "address"
        }
      ],
      "stateMutability": "view",
      "type": "function"
    },
    {
      "inputs": [
        {
          "internalType": "bytes32",
          "name": "seriesId",
          "type": "bytes32"
        },
        {
          "internalType": "address",
          "name": "subject",
          "type": "address"
        },
        {
          "internalType": "string",
          "name": "cid",
          "type": "string"
        },
        {
          "internalType": "bytes32",
          "name": "contentHash",
          "type": "bytes32"
        }
      ],
      "name": "issue",
      "outputs": [],
      "stateMutability": "nonpayable",
      "type": "function"
    },
    {
      "inputs": [
        {
          "internalType": "bytes32",
          "name": "seriesId",
          "type": "bytes32"
        }
      ],
      "name": "latestVersionOf",
      "outputs": [
        {
          "internalType": "uint256",
          "name": "",
          "type": "uint256"
        }
      ],
      "stateMutability": "view",
      "type": "function"
    },
    {
      "inputs": [
        {
          "internalType": "bytes32",
          "name": "seriesId",
          "type": "bytes32"
        },
        {
          "internalType": "uint256",
          "name": "version",
          "type": "uint256"
        }
      ],
      "name": "revoke",
      "outputs": [],
      "stateMutability": "nonpayable",
      "type": "function"
    }
  ],
  "bytecode": "0x608060405234801561001057600080fd5b506112ef806100206000396000f3fe608060405234801561001057600080fd5b50600436106100575760003560e01c80630d3991e01461005c57806334c6d38f14610078578063621fa08914610094578063af904a06146100c4578063bb46942f146100f9575b600080fd5b610076600480360381019061007191906109b6565b610115565b005b610092600480360381019061008d9190610a88565b61034f565b005b6100ae60048036038101906100a99190610b10565b61057e565b6040516100bb9190610b56565b60405180910390f35b6100de60048036038101906100d99190610b9d565b6105ff565b6040516100f096959493929190610ca6565b60405180910390f35b610113600480360381019061010e9190610b9d565b610797565b005b833373ffffffffffffffffffffffffffffffffffffffff1660008083815260200190815260200160002060000160009054906101000a900473ffffffffffffffffffffffffffffffffffffffff1673ffffffffffffffffffffffffffffffffffffffff16146101b9576040517f08c379a00000000000000000000000000000000000000000000000000000000081526004016101b090610d5a565b60405180910390fd5b600080600087815260200190815260200160002090508060050160009054906101000a900460ff16610220576040517f08c379a000000000000000000000000000000000000000000000000000000000815260040161021790610dc6565b60405180910390fd5b6000600182600301546102339190610e15565b9050808260030181905550604051806080016040528085815260200187878080601f016020809104026020016040519081016040528093929190818152602001838380828437600081840152601f19601f820116905080830192505050505050508152602001428152602001600015158152508260040160008381526020019081526020016000206000820151816000015560208201518160010190816102da9190611084565b506040820151816002015560608201518160030160006101000a81548160ff021916908315150217905550905050867f4e646bed7ae57b96558d3748110863d2af2e52f6f5bcf387796141dbafc7d42a8288888860405161033e9493929190611192565b60405180910390a250505050505050565b600080600087815260200190815260200160002090508060050160009054906101000a900460ff16156103b7576040517f08c379a00000000000000000000000000000000000000000000000000000000081526004016103ae9061121e565b60405180910390fd5b338160000160006101000a81548173ffffffffffffffffffffffffffffffffffffffff021916908373ffffffffffffffffffffffffffffffffffffffff160217905550848160010160006101000a81548173ffffffffffffffffffffffffffffffffffffffff021916908373ffffffffffffffffffffffffffffffffffffffff1602179055508581600201819055506000816003018190555060018160050160006101000a81548160ff021916908315150217905550604051806080016040528083815260200185858080601f016020809104026020016040519081016040528093929190818152602001838380828437600081840152601f19601f820116905080830192505050505050508152602001428152602001600015158152508160040160008081526020019081526020016000206000820151816000015560208201518160010190816105099190611084565b506040820151816002015560608201518160030160006101000a81548160ff021916908315150217905550905050857fa61d3b289f0e5a87a0e1ff813c41aaf24662efea518e60c3d2dd04a5e4d9b9ca600086868660405161056e9493929190611279565b60405180910390a2505050505050565b600080600083815260200190815260200160002060050160009054906101000a900460ff166105e2576040517f08c379a00000000000000000000000000000000000000000000000000000000081526004016105d990610dc6565b60405180910390fd5b600080838152602001908152602001600020600301549050919050565b6000606060008060008060008060008a815260200190815260200160002090508060050160009054906101000a900460ff16610670576040517f08c379a000000000000000000000000000000000000000000000000000000000815260040161066790610dc6565b60405180910390fd5b60008160040160008a8152602001908152602001600020905080600001548160010182600201548360030160009054906101000a900460ff168560000160009054906101000a900473ffffffffffffffffffffffffffffffffffffffff168660010160009054906101000a900473ffffffffffffffffffffffffffffffffffffffff168480546106ff90610ea7565b80601f016020809104026020016040519081016040528092919081815260200182805461072b90610ea7565b80156107785780601f1061074d57610100808354040283529160200191610778565b820191906000526020600020905b81548152906001019060200180831161075b57829003601f168201915b5050505050945097509750975097509750975050509295509295509295565b813373ffffffffffffffffffffffffffffffffffffffff1660008083815260200190815260200160002060000160009054906101000a900473ffffffffffffffffffffffffffffffffffffffff1673ffffffffffffffffffffffffffffffffffffffff161461083b576040517f08c379a000000000000000000000000000000000000000000000000000000000815260040161083290610d5a565b60405180910390fd5b600080600085815260200190815260200160002090508060050160009054906101000a900460ff166108a2576040517f08c379a000000000000000000000000000000000000000000000000000000000815260040161089990610dc6565b60405180910390fd5b600181600401600085815260200190815260200160002060030160006101000a81548160ff021916908315150217905550837ff53e4c807734a99e87fb386d2952cda1e1aa71600280ecf91f5eaae69677c333846040516109039190610b56565b60405180910390a250505050565b600080fd5b600080fd5b6000819050919050565b61092e8161091b565b811461093957600080fd5b50565b60008135905061094b81610925565b92915050565b600080fd5b600080fd5b600080fd5b60008083601f84011261097657610975610951565b5b8235905067ffffffffffffffff81111561099357610992610956565b5b6020830191508360018202830111156109af576109ae61095b565b5b9250929050565b600080600080606085870312156109d0576109cf610911565b5b60006109de8782880161093c565b945050602085013567ffffffffffffffff8111156109ff576109fe610916565b5b610a0b87828801610960565b93509350506040610a1e8782880161093c565b91505092959194509250565b600073ffffffffffffffffffffffffffffffffffffffff82169050919050565b6000610a5582610a2a565b9050919050565b610a6581610a4a565b8114610a7057600080fd5b50565b600081359050610a8281610a5c565b92915050565b600080600080600060808688031215610aa457610aa3610911565b5b6000610ab28882890161093c565b9550506020610ac388828901610a73565b945050604086013567ffffffffffffffff811115610ae457610ae3610916565b5b610af088828901610960565b93509350506060610b038882890161093c565b9150509295509295909350565b600060208284031215610b2657610b25610911565b5b6000610b348482850161093c565b91505092915050565b6000819050919050565b610b5081610b3d565b82525050565b6000602082019050610b6b6000830184610b47565b92915050565b610b7a81610b3d565b8114610b8557600080fd5b50565b600081359050610b9781610b71565b92915050565b60008060408385031215610bb457610bb3610911565b5b6000610bc28582860161093c565b9250506020610bd385828601610b88565b9150509250929050565b610be68161091b565b82525050565b600081519050919050565b600082825260208201905092915050565b60005b83811015610c26578082015181840152602081019050610c0b565b60008484015250505050565b6000601f19601f8301169050919050565b6000610c4e82610bec565b610c588185610bf7565b9350610c68818560208601610c08565b610c7181610c32565b840191505092915050565b60008115159050919050565b610c9181610c7c565b82525050565b610ca081610a4a565b82525050565b600060c082019050610cbb6000830189610bdd565b8181036020830152610ccd8188610c43565b9050610cdc6040830187610b47565b610ce96060830186610c88565b610cf66080830185610c97565b610d0360a0830184610c97565b979650505050505050565b7f6e6f742069737375657200000000000000000000000000000000000000000000600082015250565b6000610d44600a83610bf7565b9150610d4f82610d0e565b602082019050919050565b60006020820190508181036000830152610d7381610d37565b9050919050565b7f736572696573206d697373696e67000000000000000000000000000000000000600082015250565b6000610db0600e83610bf7565b9150610dbb82610d7a565b602082019050919050565b60006020820190508181036000830152610ddf81610da3565b9050919050565b7f4e487b7100000000000000000000000000000000000000000000000000000000600052601160045260246000fd5b6000610e2082610b3d565b9150610e2b83610b3d565b9250828201905080821115610e4357610e42610de6565b5b92915050565b7f4e487b7100000000000000000000000000000000000000000000000000000000600052604160045260246000fd5b7f4e487b7100000000000000000000000000000000000000000000000000000000600052602260045260246000fd5b60006002820490506001821680610ebf57607f821691505b602082108103610ed257610ed1610e78565b5b50919050565b60008190508160005260206000209050919050565b60006020601f8301049050919050565b600082821b905092915050565b600060088302610f3a7fffffffffffffffffffffffffffffffffffffffffffffffffffffffffffffffff82610efd565b610f448683610efd565b95508019841693508086168417925050509392505050565b6000819050919050565b6000610f81610f7c610f7784610b3d565b610f5c565b610b3d565b9050919050565b6000819050919050565b610f9b83610f66565b610faf610fa782610f88565b848454610f0a565b825550505050565b600090565b610fc4610fb7565b610fcf818484610f92565b505050565b5b81811015610ff357610fe8600082610fbc565b600181019050610fd5565b5050565b601f8211156110385761100981610ed8565b61101284610eed565b81016020851015611021578190505b61103561102d85610eed565b830182610fd4565b50505b505050565b600082821c905092915050565b600061105b6000198460080261103d565b1980831691505092915050565b6000611074838361104a565b9150826002028217905092915050565b61108d82610bec565b67ffffffffffffffff8111156110a6576110a5610e49565b5b6110b08254610ea7565b6110bb828285610ff7565b600060209050601f8311600181146110ee57600084156110dc578287015190505b6110e68582611068565b86555061114e565b601f1984166110fc86610ed8565b60005b82811015611124578489015182556001820191506020850194506020810190506110ff565b86831015611141578489015161113d601f89168261104a565b8355505b6001600288020188555050505b505050505050565b82818337600083830152505050565b60006111718385610bf7565b935061117e838584611156565b61118783610c32565b840190509392505050565b60006060820190506111a76000830187610b47565b81810360208301526111ba818587611165565b90506111c96040830184610bdd565b95945050505050565b7f7365726965732065786973747300000000000000000000000000000000000000600082015250565b6000611208600d83610bf7565b9150611213826111d2565b602082019050919050565b60006020820190508181036000830152611237816111fb565b9050919050565b6000819050919050565b600061126361125e6112598461123e565b610f5c565b610b3d565b9050919050565b61127381611248565b82525050565b600060608201905061128e600083018761126a565b81810360208301526112a1818587611165565b90506112b06040830184610bdd565b9594505050505056fea2646970667358221220de414944afbb1736fcd8c6303d37db5102a512e03b6e8f3ee6e7b74a05c8d2c964736f6c63430008170033",
  "linkReferences": {},
  "deployedLinkReferences": {}
}