{
  "_format": "hh-sol-artifact-1",
  "contractName": "CredentialRegistry",
  "sourceName": "contracts/CredentialRegistry.sol",
  "abi": [
    {
      "inputs": [],
      "stateMutability": "nonpayable",
      "type": "constructor"
    },
    {
      "inputs": [
        {
          "internalType": "address",
          "name": "sender",
          "type": "address"
        },
        {
          "internalType": "uint256",
          "name": "tokenId",
          "type": "uint256"
        },
        {
          "internalType": "address",
          "name": "owner",
          "type": "address"
        }
      ],
      "name": "ERC721IncorrectOwner",
      "type": "error"
    },
    {
      "inputs": [
        {
          "internalType": "address",
          "name": "operator",
          "type": "address"
        },
        {
          "internalType": "uint256",
          "name": "tokenId",
          "type": "uint256"
        }
      ],
      "name": "ERC721InsufficientApproval",
      "type": "error"
    },
    {
      "inputs": [
        {
          "internalType": "address",
          "name": "approver",
          "type": "address"
        }
      ],
      "name": "ERC721InvalidApprover",
      "type": "error"
    },
    {
      "inputs": [
        {
          "internalType": "address",
          "name": "operator",
          "type": "address"
        }
      ],
      "name": "ERC721InvalidOperator",
      "type": "error"
    },
    {
      "inputs": [
        {
          "internalType": "address",
          "name": "owner",
          "type": "address"
        }
      ],
      "name": "ERC721InvalidOwner",
      "type": "error"
    },
    {
      "inputs": [
        {
          "internalType": "address",
          "name": "receiver",
          "type": "address"
        }
      ],
      "name": "ERC721InvalidReceiver",
      "type": "error"
    },
    {
      "inputs": [
        {
          "internalType": "address",
          "name": "sender",
          "type": "address"
        }
      ],
      "name": "ERC721InvalidSender",
      "type": "error"
    },
    {
      "inputs": [
        {
          "internalType": "uint256",
          "name": "tokenId",
          "type": "uint256"
        }
      ],
      "name": "ERC721NonexistentToken",
      "type": "error"
    },
    {
      "inputs": [
        {
          "internalType": "address",
          "name": "owner",
          "type": "address"
        }
      ],
      "name": "OwnableInvalidOwner",
      "type": "error"
    },
    {
      "inputs": [
        {
          "internalType": "address",
          "name": "account",
          "type": "address"
        }
      ],
      "name": "OwnableUnauthorizedAccount",
      "type": "error"
    },
    {
      "anonymous": false,
      "inputs": [
        {
          "indexed": true,
          "internalType": "address",
          "name": "owner",
          "type": "address"
        },
        {
          "indexed": true,
          "internalType": "address",
          "name": "approved",
          "type": "address"
        },
        {
          "indexed": true,
          "internalType": "uint256",
          "name": "tokenId",
          "type": "uint256"
        }
      ],
      "name": "Approval",
      "type": "event"
    },
    {
      "anonymous": false,
      "inputs": [
        {
          "indexed": true,
          "internalType": "address",
          "name": "owner",
          "type": "address"
        },
        {
          "indexed": true,
          "internalType": "address",
          "name": "operator",
          "type": "address"
        },
        {
          "indexed": false,
          "internalType": "bool",
          "name": "approved",
          "type": "bool"
        }
      ],
      "name": "ApprovalForAll",
      "type": "event"
    },
    {
      "anonymous": false,
      "inputs": [
        {
          "indexed": false,
          "internalType": "uint256",
          "name": "_fromTokenId",
          "type": "uint256"
        },
        {
          "indexed": false,
          "internalType": "uint256",
          "name": "_toTokenId",
          "type": "uint256"
        }
      ],
      "name": "BatchMetadataUpdate",
      "type": "event"
    },
    {
      "anonymous": false,
      "inputs": [
        {
          "indexed": true,
          "internalType": "bytes32",
          "name": "seriesId",
          "type": "bytes32"
        },
        {
          "indexed": false,
          "internalType": "uint256",
          "name": "version",
          "type": "uint256"
        },
        {
          "indexed": false,
          "internalType": "string",
          "name": "cid",
          "type": "string"
        },
        {
          "indexed": false,
          "internalType": "bytes32",
          "name": "contentHash",
          "type": "bytes32"
        },
        {
          "indexed": false,
          "internalType": "uint256",
          "name": "tokenId",
          "type": "uint256"
        }
      ],
      "name": "Issued",
      "type": "event"
    },
    {
      "anonymous": false,
      "inputs": [
        {
          "indexed": false,
          "internalType": "uint256",
          "name": "_tokenId",
          "type": "uint256"
        }
      ],
      "name": "MetadataUpdate",
      "type": "event"
    },
    {
      "anonymous": false,
      "inputs": [
        {
          "indexed": true,
          "internalType": "address",
          "name": "previousOwner",
          "type": "address"
        },
        {
          "indexed": true,
          "internalType": "address",
          "name": "newOwner",
          "type": "address"
        }
      ],
      "name": "OwnershipTransferred",
      "type": "event"
    },
    {
      "anonymous": false,
      "inputs": [
        {
          "indexed": true,
          "internalType": "bytes32",
          "name": "seriesId",
          "type": "bytes32"
        },
        {
          "indexed": false,
          "internalType": "uint256",
          "name": "version",
          "type": "uint256"
        }
      ],
      "name": "Revoked",
      "type": "event"
    },
    {
      "anonymous": false,
      "inputs": [
        {
          "indexed": true,
          "internalType": "address",
          "name": "from",
          "type": "address"
        },
        {
          "indexed": true,
          "internalType": "address",
          "name": "to",
          "type": "address"
        },
        {
          "indexed": true,
          "internalType": "uint256",
          "name": "tokenId",
          "type": "uint256"
        }
      ],
      "name": "Transfer",
      "type": "event"
    },
    {
      "anonymous": false,
      "inputs": [
        {
          "indexed": true,
          "internalType": "bytes32",
          "name": "seriesId",
          "type": "bytes32"
        },
        {
          "indexed": false,
          "internalType": "uint256",
          "name": "version",
          "type": "uint256"
        },
        {
          "indexed": false,
          "internalType": "string",
          "name": "cid",
          "type": "string"
        },
        {
          "indexed": false,
          "internalType": "bytes32",
          "name": "contentHash",
          "type": "bytes32"
        }
      ],
      "name": "Upgraded",
      "type": "event"
    },
    {
      "inputs": [
        {
          "internalType": "bytes32",
          "name": "seriesId",
          "type": "bytes32"
        },
        {
          "internalType": "string",
          "name": "metadataCid",
          "type": "string"
        },
        {
          "internalType": "bytes32",
          "name": "contentHash",
          "type": "bytes32"
        }
      ],
      "name": "addVersion",
      "outputs": [],
      "stateMutability": "nonpayable",
      "type": "function"
    },
    {
      "inputs": [
        {
          "internalType": "address",
          "name": "to",
          "type": "address"
        },
        {
          "internalType": "uint256",
          "name": "tokenId",
          "type": "uint256"
        }
      ],
      "name": "approve",
      "outputs": [],
      "stateMutability": "nonpayable",
      "type": "function"
    },
    {
      "inputs": [
        {
          "internalType": "address",
          "name": "owner",
          "type": "address"
        }
      ],
      "name": "balanceOf",
      "outputs": [
        {
          "internalType": "uint256",
          "name": "",
          "type": "uint256"
        }
      ],
      "stateMutability": "view",
      "type": "function"
    },
    {
      "inputs": [
        {
          "internalType": "uint256",
          "name": "tokenId",
          "type": "uint256"
        }
      ],
      "name": "getApproved",
      "outputs": [
        {
          "internalType": "address",
          "name": "",
          "type": "address"
        }
      ],
      "stateMutability": "view",
      "type": "function"
    },
    {
      "inputs": [
        {
          "internalType": "bytes32",
          "name": "seriesId",
          "type": "bytes32"
        },
        {
          "internalType": "uint256",
          "name": "version",
          "type": "uint256"
        }
      ],
      "name": "getVersion",
      "outputs": [
        {
          "internalType": "bytes32",
          "name": "contentHash",
          "type": "bytes32"
        },
        {
          "internalType": "string",
          "name": "cid",
          "type": "string"
        },
        {
          "internalType": "uint256",
          "name": "issuedAt",
          "type": "uint256"
        },
        {
          "internalType": "bool",
          "name": "revoked",
          "type": "bool"
        },
        {
          "internalType": "address",
          "name": "issuer",
          "type": "address"
        },
        {
          "internalType": "address",
          "name": "subject",
          "type": "address"
        }
      ],
      "stateMutability": "view",
      "type": "function"
    },
    {
      "inputs": [
        {
          "internalType": "address",
          "name": "owner",
          "type": "address"
        },
        {
          "internalType": "address",
          "name": "operator",
          "type": "address"
        }
      ],
      "name": "isApprovedForAll",
      "outputs": [
        {
          "internalType": "bool",
          "name": "",
          "type": "bool"
        }
      ],
      "stateMutability": "view",
      "type": "function"
    },
    {
      "inputs": [
        {
          "internalType": "bytes32",
          "name": "seriesId",
          "type": "bytes32"
        },
        {
          "internalType": "address",
          "name": "subject",
          "type": "address"
        },
        {
          "internalType": "string",
          "name": "metadataCid",
          "type": "string"
        },
        {
          "internalType": "bytes32",
          "name": "contentHash",
          "type": "bytes32"
        }
      ],
      "name": "issue",
      "outputs": [],
      "stateMutability": "nonpayable",
      "type": "function"
    },
    {
      "inputs": [
        {
          "internalType": "bytes32",
          "name": "seriesId",
          "type": "bytes32"
        }
      ],
      "name": "latestVersionOf",
      "outputs": [
        {
          "internalType": "uint256",
          "name": "",
          "type": "uint256"
        }
      ],
      "stateMutability": "view",
      "type": "function"
    },
    {
      "inputs": [],
      "name": "name",
      "outputs": [
        {
          "internalType": "string",
          "name": "",
          "type": "string"
        }
      ],
      "stateMutability": "view",
      "type": "function"
    },
    {
      "inputs": [],
      "name": "owner",
      "outputs": [
        {
          "internalType": "address",
          "name": "",
          "type": "address"
        }
      ],
      "stateMutability": "view",
      "type": "function"
    },
    {
      "inputs": [
        {
          "internalType": "uint256",
          "name": "tokenId",
          "type": "uint256"
        }
      ],
      "name": "ownerOf",
      "outputs": [
        {
          "internalType": "address",
          "name": "",
          "type": "address"
        }
      ],
      "stateMutability": "view",
      "type": "function"
    },
    {
      "inputs": [],
      "name": "renounceOwnership",
      "outputs": [],
      "stateMutability": "nonpayable",
      "type": "function"
    },
    {
      "inputs": [
        {
          "internalType": "bytes32",
          "name": "seriesId",
          "type": "bytes32"
        },
        {
          "internalType": "uint256",
          "name": "version",
          "type": "uint256"
        }
      ],
      "name": "revoke",
      "outputs": [],
      "stateMutability": "nonpayable",
      "type": "function"
    },
    {
      "inputs": [
        {
          "internalType": "address",
          "name": "from",
          "type": "address"
        },
        {
          "internalType": "address",
          "name": "to",
          "type": "address"
        },
        {
          "internalType": "uint256",
          "name": "tokenId",
          "type": "uint256"
        }
      ],
      "name": "safeTransferFrom",
      "outputs": [],
      "stateMutability": "nonpayable",
      "type": "function"
    },
    {
      "inputs": [
        {
          "internalType": "address",
          "name": "from",
          "type": "address"
        },
        {
          "internalType": "address",
          "name": "to",
          "type": "address"
        },
        {
          "internalType": "uint256",
          "name": "tokenId",
          "type": "uint256"
        },
        {
          "internalType": "bytes",
          "name": "data",
          "type": "bytes"
        }
      ],
      "name": "safeTransferFrom",
      "outputs": [],
      "stateMutability": "nonpayable",
      "type": "function"
    },
    {
      "inputs": [
        {
          "internalType": "bytes32",
          "name": "",
          "type": "bytes32"
        }
      ],
      "name": "seriesToTokenId",
      "outputs": [
        {
          "internalType": "uint256",
          "name": "",
          "type": "uint256"
        }
      ],
      "stateMutability": "view",
      "type": "function"
    },
    {
      "inputs": [
        {
          "internalType": "address",
          "name": "operator",
          "type": "address"
        },
        {
          "internalType": "bool",
          "name": "approved",
          "type": "bool"
        }
      ],
      "name": "setApprovalForAll",
      "outputs": [],
      "stateMutability": "nonpayable",
      "type": "function"
    },
    {
      "inputs": [
        {
          "internalType": "bytes4",
          "name": "interfaceId",
          "type": "bytes4"
        }
      ],
      "name": "supportsInterface",
      "outputs": [
        {
          "internalType": "bool",
          "name": "",
          "type": "bool"
        }
      ],
      "stateMutability": "view",
      "type": "function"
    },
    {
      "inputs": [],
      "name": "symbol",
      "outputs": [
        {
          "internalType": "string",
          "name": "",
          "type": "string"
        }
      ],
      "stateMutability": "view",
      "type": "function"
    },
    {
      "inputs": [
        {
          "internalType": "uint256",
          "name": "tokenId",
          "type": "uint256"
        }
      ],
      "name": "tokenURI",
      "outputs": [
        {
          "internalType": "string",
          "name": "",
          "type": "string"
        }
      ],
      "stateMutability": "view",
      "type": "function"
    },
    {
      "inputs": [
        {
          "internalType": "address",
          "name": "from",
          "type": "address"
        },
        {
          "internalType": "address",
          "name": "to",
          "type": "address"
        },
        {
          "internalType": "uint256",
          "name": "tokenId",
          "type": "uint256"
        }
      ],
      "name": "transferFrom",
      "outputs": [],
      "stateMutability": "nonpayable",
      "type": "function"
    },
    {
      "inputs": [
        {
          "internalType": "address",
          "name": "newOwner",
          "type": "address"
        }
      ],
      "name": "transferOwnership",
      "outputs": [],
      "stateMutability": "nonpayable",
      "type": "function"
    }
  ],
  "bytecode": "0x60806040523480156200001157600080fd5b50336040518060400160405280601281526020017f41636164656d696343726564656e7469616c00000000000000000000000000008152506040518060400160405280600581526020017f4143524544000000000000000000000000000000000000000000000000000000815250816000908162000090919062000472565b508060019081620000a2919062000472565b505050600073ffffffffffffffffffffffffffffffffffffffff168173ffffffffffffffffffffffffffffffffffffffff16036200011a5760006040517f1e4fbdf70000000000000000000000000000000000000000000000000000000081526004016200011191906200059e565b60405180910390fd5b6200012b816200013260201b60201c565b50620005bb565b6000600760009054906101000a900473ffffffffffffffffffffffffffffffffffffffff16905081600760006101000a81548173ffffffffffffffffffffffffffffffffffffffff021916908373ffffffffffffffffffffffffffffffffffffffff1602179055508173ffffffffffffffffffffffffffffffffffffffff168173ffffffffffffffffffffffffffffffffffffffff167f8be0079c531659141344cd1fd0a4f28419497f9722a3daafe3b4186f6b6457e060405160405180910390a35050565b600081519050919050565b7f4e487b7100000000000000000000000000000000000000000000000000000000600052604160045260246000fd5b7f4e487b7100000000000000000000000000000000000000000000000000000000600052602260045260246000fd5b600060028204905060018216806200027a57607f821691505b60208210810362000290576200028f62000232565b5b50919050565b60008190508160005260206000209050919050565b60006020601f8301049050919050565b600082821b905092915050565b600060088302620002fa7fffffffffffffffffffffffffffffffffffffffffffffffffffffffffffffffff82620002bb565b620003068683620002bb565b95508019841693508086168417925050509392505050565b6000819050919050565b6000819050919050565b6000620003536200034d62000347846200031e565b62000328565b6200031e565b9050919050565b6000819050919050565b6200036f8362000332565b620003876200037e826200035a565b848454620002c8565b825550505050565b600090565b6200039e6200038f565b620003ab81848462000364565b505050565b5b81811015620003d357620003c760008262000394565b600181019050620003b1565b5050565b601f8211156200042257620003ec8162000296565b620003f784620002ab565b8101602085101562000407578190505b6200041f6200041685620002ab565b830182620003b0565b50505b505050565b600082821c905092915050565b6000620004476000198460080262000427565b1980831691505092915050565b600062000462838362000434565b9150826002028217905092915050565b6200047d82620001f8565b67ffffffffffffffff81111562000499576200049862000203565b5b620004a5825462000261565b620004b2828285620003d7565b600060209050601f831160018114620004ea5760008415620004d5578287015190505b620004e1858262000454565b86555062000551565b601f198416620004fa8662000296565b60005b828110156200052457848901518255600182019150602085019450602081019050620004fd565b8683101562000544578489015162000540601f89168262000434565b8355505b6001600288020188555050505b505050505050565b600073ffffffffffffffffffffffffffffffffffffffff82169050919050565b6000620005868262000559565b9050919050565b620005988162000579565b82525050565b6000602082019050620005b560008301846200058d565b92915050565b6133ee80620005cb6000396000f3fe608060405234801561001057600080fd5b50600436106101425760003560e01c806370a08231116100b8578063af904a061161007c578063af904a0614610373578063b88d4fde146103a8578063bb46942f146103c4578063c87b56dd146103e0578063e985e9c514610410578063f2fde38b1461044057610142565b806370a08231146102e1578063715018a6146103115780638da5cb5b1461031b57806395d89b4114610339578063a22cb4651461035757610142565b8063238c1d291161010a578063238c1d29146101fd57806323b872dd1461022d57806334c6d38f1461024957806342842e0e14610265578063621fa089146102815780636352211e146102b157610142565b806301ffc9a71461014757806306fdde0314610177578063081812fc14610195578063095ea7b3146101c55780630d3991e0146101e1575b600080fd5b610161600480360381019061015c919061245f565b61045c565b60405161016e91906124a7565b60405180910390f35b61017f6104bd565b60405161018c9190612552565b60405180910390f35b6101af60048036038101906101aa91906125aa565b61054f565b6040516101bc9190612618565b60405180910390f35b6101df60048036038101906101da919061265f565b61056b565b005b6101fb60048036038101906101f6919061273a565b610581565b005b610217600480360381019061021291906127ae565b610824565b60405161022491906127ea565b60405180910390f35b61024760048036038101906102429190612805565b61083c565b005b610263600480360381019061025e9190612858565b61093e565b005b61027f600480360381019061027a9190612805565b610c08565b005b61029b600480360381019061029691906127ae565b610c28565b6040516102a891906127ea565b60405180910390f35b6102cb60048036038101906102c691906125aa565b610cab565b6040516102d89190612618565b60405180910390f35b6102fb60048036038101906102f691906128e0565b610cbd565b60405161030891906127ea565b60405180910390f35b610319610d77565b005b610323610d8b565b6040516103309190612618565b60405180910390f35b610341610db5565b60405161034e9190612552565b60405180910390f35b610371600480360381019061036c9190612939565b610e47565b005b61038d60048036038101906103889190612979565b610e5d565b60405161039f969594939291906129c8565b60405180910390f35b6103c260048036038101906103bd9190612b60565b610ff6565b005b6103de60048036038101906103d99190612979565b61101b565b005b6103fa60048036038101906103f591906125aa565b611197565b6040516104079190612552565b60405180910390f35b61042a60048036038101906104259190612be3565b6112aa565b60405161043791906124a7565b60405180910390f35b61045a600480360381019061045591906128e0565b61133e565b005b6000634906490660e01b7bffffffffffffffffffffffffffffffffffffffffffffffffffffffff1916827bffffffffffffffffffffffffffffffffffffffffffffffffffffffff191614806104b657506104b5826113c4565b5b9050919050565b6060600080546104cc90612c52565b80601f01602080910402602001604051908101604052809291908181526020018280546104f890612c52565b80156105455780601f1061051a57610100808354040283529160200191610545565b820191906000526020600020905b81548152906001019060200180831161052857829003601f168201915b5050505050905090565b600061055a826114a6565b506105648261152e565b9050919050565b61057d828261057861156b565b611573565b5050565b833373ffffffffffffffffffffffffffffffffffffffff166008600083815260200190815260200160002060000160009054906101000a900473ffffffffffffffffffffffffffffffffffffffff1673ffffffffffffffffffffffffffffffffffffffff1614610626576040517f08c379a000000000000000000000000000000000000000000000000000000000815260040161061d90612ccf565b60405180910390fd5b60006008600087815260200190815260200160002090508060050160009054906101000a900460ff1661068e576040517f08c379a000000000000000000000000000000000000000000000000000000000815260040161068590612d3b565b60405180910390fd5b6000600182600301546106a19190612d8a565b9050808260030181905550604051806080016040528085815260200187878080601f016020809104026020016040519081016040528093929190818152602001838380828437600081840152601f19601f820116905080830192505050505050508152602001428152602001600015158152508260040160008381526020019081526020016000206000820151816000015560208201518160010190816107489190612f6a565b506040820151816002015560608201518160030160006101000a81548160ff0219169083151502179055509050506000600960008981526020019081526020016000205490506107dc8188888080601f016020809104026020016040519081016040528093929190818152602001838380828437600081840152601f19601f82011690508083019250505050505050611585565b877f4e646bed7ae57b96558d3748110863d2af2e52f6f5bcf387796141dbafc7d42a838989896040516108129493929190613069565b60405180910390a25050505050505050565b60096020528060005260406000206000915090505481565b600073ffffffffffffffffffffffffffffffffffffffff168273ffffffffffffffffffffffffffffffffffffffff16036108ae5760006040517f64a0ae920000000000000000000000000000000000000000000000000000000081526004016108a59190612618565b60405180910390fd5b60006108c283836108bd61156b565b6115e1565b90508373ffffffffffffffffffffffffffffffffffffffff168173ffffffffffffffffffffffffffffffffffffffff1614610938578382826040517f64283d7b00000000000000000000000000000000000000000000000000000000815260040161092f939291906130a9565b60405180910390fd5b50505050565b6109466117fb565b60006008600087815260200190815260200160002090508060050160009054906101000a900460ff16156109af576040517f08c379a00000000000000000000000000000000000000000000000000000000081526004016109a69061312c565b60405180910390fd5b338160000160006101000a81548173ffffffffffffffffffffffffffffffffffffffff021916908373ffffffffffffffffffffffffffffffffffffffff160217905550848160010160006101000a81548173ffffffffffffffffffffffffffffffffffffffff021916908373ffffffffffffffffffffffffffffffffffffffff1602179055508581600201819055506000816003018190555060018160050160006101000a81548160ff021916908315150217905550604051806080016040528083815260200185858080601f016020809104026020016040519081016040528093929190818152602001838380828437600081840152601f19601f82011690508083019250505050505050815260200142815260200160001515815250816004016000808152602001908152602001600020600082015181600001556020820151816001019081610b019190612f6a565b506040820151816002015560608201518160030160006101000a81548160ff021916908315150217905550905050600a6000815480929190610b429061314c565b91905055506000600a549050610b588682611882565b610ba68186868080601f016020809104026020016040519081016040528093929190818152602001838380828437600081840152601f19601f82011690508083019250505050505050611585565b806009600089815260200190815260200160002081905550867f345c9605740ee5730a25bf3b9499c33b9bb67ebaa7ca5e245c57d306c6125cc0600087878786604051610bf79594939291906131cf565b60405180910390a250505050505050565b610c2383838360405180602001604052806000815250610ff6565b505050565b60006008600083815260200190815260200160002060050160009054906101000a900460ff16610c8d576040517f08c379a0000000000000000000000000000000000000000000000000000000008152600401610c8490612d3b565b60405180910390fd5b60086000838152602001908152602001600020600301549050919050565b6000610cb6826114a6565b9050919050565b60008073ffffffffffffffffffffffffffffffffffffffff168273ffffffffffffffffffffffffffffffffffffffff1603610d305760006040517f89c62b64000000000000000000000000000000000000000000000000000000008152600401610d279190612618565b60405180910390fd5b600360008373ffffffffffffffffffffffffffffffffffffffff1673ffffffffffffffffffffffffffffffffffffffff168152602001908152602001600020549050919050565b610d7f6117fb565b610d89600061197b565b565b6000600760009054906101000a900473ffffffffffffffffffffffffffffffffffffffff16905090565b606060018054610dc490612c52565b80601f0160208091040260200160405190810160405280929190818152602001828054610df090612c52565b8015610e3d5780601f10610e1257610100808354040283529160200191610e3d565b820191906000526020600020905b815481529060010190602001808311610e2057829003601f168201915b5050505050905090565b610e59610e5261156b565b8383611a41565b5050565b600060606000806000806000600860008a815260200190815260200160002090508060050160009054906101000a900460ff16610ecf576040517f08c379a0000000000000000000000000000000000000000000000000000000008152600401610ec690612d3b565b60405180910390fd5b60008160040160008a8152602001908152602001600020905080600001548160010182600201548360030160009054906101000a900460ff168560000160009054906101000a900473ffffffffffffffffffffffffffffffffffffffff168660010160009054906101000a900473ffffffffffffffffffffffffffffffffffffffff16848054610f5e90612c52565b80601f0160208091040260200160405190810160405280929190818152602001828054610f8a90612c52565b8015610fd75780601f10610fac57610100808354040283529160200191610fd7565b820191906000526020600020905b815481529060010190602001808311610fba57829003601f168201915b5050505050945097509750975097509750975050509295509295509295565b61100184848461083c565b61101561100c61156b565b85858585611bb0565b50505050565b813373ffffffffffffffffffffffffffffffffffffffff166008600083815260200190815260200160002060000160009054906101000a900473ffffffffffffffffffffffffffffffffffffffff1673ffffffffffffffffffffffffffffffffffffffff16146110c0576040517f08c379a00000000000000000000000000000000000000000000000000000000081526004016110b790612ccf565b60405180910390fd5b60006008600085815260200190815260200160002090508060050160009054906101000a900460ff16611128576040517f08c379a000000000000000000000000000000000000000000000000000000000815260040161111f90612d3b565b60405180910390fd5b600181600401600085815260200190815260200160002060030160006101000a81548160ff021916908315150217905550837ff53e4c807734a99e87fb386d2952cda1e1aa71600280ecf91f5eaae69677c3338460405161118991906127ea565b60405180910390a250505050565b60606111a2826114a6565b5060006006600084815260200190815260200160002080546111c390612c52565b80601f01602080910402602001604051908101604052809291908181526020018280546111ef90612c52565b801561123c5780601f106112115761010080835404028352916020019161123c565b820191906000526020600020905b81548152906001019060200180831161121f57829003601f168201915b50505050509050600061124d611d61565b905060008151036112625781925050506112a5565b60008251111561129757808260405160200161127f929190613259565b604051602081830303815290604052925050506112a5565b6112a084611d78565b925050505b919050565b6000600560008473ffffffffffffffffffffffffffffffffffffffff1673ffffffffffffffffffffffffffffffffffffffff16815260200190815260200160002060008373ffffffffffffffffffffffffffffffffffffffff1673ffffffffffffffffffffffffffffffffffffffff16815260200190815260200160002060009054906101000a900460ff16905092915050565b6113466117fb565b600073ffffffffffffffffffffffffffffffffffffffff168173ffffffffffffffffffffffffffffffffffffffff16036113b85760006040517f1e4fbdf70000000000000000000000000000000000000000000000000000000081526004016113af9190612618565b60405180910390fd5b6113c18161197b565b50565b60007f80ac58cd000000000000000000000000000000000000000000000000000000007bffffffffffffffffffffffffffffffffffffffffffffffffffffffff1916827bffffffffffffffffffffffffffffffffffffffffffffffffffffffff1916148061148f57507f5b5e139f000000000000000000000000000000000000000000000000000000007bffffffffffffffffffffffffffffffffffffffffffffffffffffffff1916827bffffffffffffffffffffffffffffffffffffffffffffffffffffffff1916145b8061149f575061149e82611de1565b5b9050919050565b6000806114b283611e4b565b9050600073ffffffffffffffffffffffffffffffffffffffff168173ffffffffffffffffffffffffffffffffffffffff160361152557826040517f7e27328900000000000000000000000000000000000000000000000000000000815260040161151c91906127ea565b60405180910390fd5b80915050919050565b60006004600083815260200190815260200160002060009054906101000a900473ffffffffffffffffffffffffffffffffffffffff169050919050565b600033905090565b6115808383836001611e88565b505050565b806006600084815260200190815260200160002090816115a59190612f6a565b507ff8e1a15aba9398e019f0b49df1a4fde98ee17ae345cb5f6b5e2c27f5033e8ce7826040516115d591906127ea565b60405180910390a15050565b6000806115ed84611e4b565b9050600073ffffffffffffffffffffffffffffffffffffffff168373ffffffffffffffffffffffffffffffffffffffff161461162f5761162e81848661204d565b5b600073ffffffffffffffffffffffffffffffffffffffff168173ffffffffffffffffffffffffffffffffffffffff16146116c057611671600085600080611e88565b6001600360008373ffffffffffffffffffffffffffffffffffffffff1673ffffffffffffffffffffffffffffffffffffffff168152602001908152602001600020600082825403925050819055505b600073ffffffffffffffffffffffffffffffffffffffff168573ffffffffffffffffffffffffffffffffffffffff1614611743576001600360008773ffffffffffffffffffffffffffffffffffffffff1673ffffffffffffffffffffffffffffffffffffffff168152602001908152602001600020600082825401925050819055505b846002600086815260200190815260200160002060006101000a81548173ffffffffffffffffffffffffffffffffffffffff021916908373ffffffffffffffffffffffffffffffffffffffff160217905550838573ffffffffffffffffffffffffffffffffffffffff168273ffffffffffffffffffffffffffffffffffffffff167fddf252ad1be2c89b69c2b068fc378daa952ba7f163c4a11628f55a4df523b3ef60405160405180910390a4809150509392505050565b61180361156b565b73ffffffffffffffffffffffffffffffffffffffff16611821610d8b565b73ffffffffffffffffffffffffffffffffffffffff16146118805761184461156b565b6040517f118cdaa70000000000000000000000000000000000000000000000000000000081526004016118779190612618565b60405180910390fd5b565b600073ffffffffffffffffffffffffffffffffffffffff168273ffffffffffffffffffffffffffffffffffffffff16036118f45760006040517f64a0ae920000000000000000000000000000000000000000000000000000000081526004016118eb9190612618565b60405180910390fd5b6000611902838360006115e1565b9050600073ffffffffffffffffffffffffffffffffffffffff168173ffffffffffffffffffffffffffffffffffffffff16146119765760006040517f73c6ac6e00000000000000000000000000000000000000000000000000000000815260040161196d9190612618565b60405180910390fd5b505050565b6000600760009054906101000a900473ffffffffffffffffffffffffffffffffffffffff16905081600760006101000a81548173ffffffffffffffffffffffffffffffffffffffff021916908373ffffffffffffffffffffffffffffffffffffffff1602179055508173ffffffffffffffffffffffffffffffffffffffff168173ffffffffffffffffffffffffffffffffffffffff167f8be0079c531659141344cd1fd0a4f28419497f9722a3daafe3b4186f6b6457e060405160405180910390a35050565b600073ffffffffffffffffffffffffffffffffffffffff168273ffffffffffffffffffffffffffffffffffffffff1603611ab257816040517f5b08ba18000000000000000000000000000000000000000000000000000000008152600401611aa99190612618565b60405180910390fd5b80600560008573ffffffffffffffffffffffffffffffffffffffff1673ffffffffffffffffffffffffffffffffffffffff16815260200190815260200160002060008473ffffffffffffffffffffffffffffffffffffffff1673ffffffffffffffffffffffffffffffffffffffff16815260200190815260200160002060006101000a81548160ff0219169083151502179055508173ffffffffffffffffffffffffffffffffffffffff168373ffffffffffffffffffffffffffffffffffffffff167f17307eab39ab6107e8899845ad3d59bd9653f200f220920489ca2b5937696c3183604051611ba391906124a7565b60405180910390a3505050565b60008373ffffffffffffffffffffffffffffffffffffffff163b1115611d5a578273ffffffffffffffffffffffffffffffffffffffff1663150b7a02868685856040518563ffffffff1660e01b8152600401611c0f94939291906132d2565b6020604051808303816000875af1925050508015611c4b57506040513d601f19601f82011682018060405250810190611c489190613333565b60015b611ccf573d8060008114611c7b576040519150601f19603f3d011682016040523d82523d6000602084013e611c80565b606091505b506000815103611cc757836040517f64a0ae92000000000000000000000000000000000000000000000000000000008152600401611cbe9190612618565b60405180910390fd5b805160208201fd5b63150b7a0260e01b7bffffffffffffffffffffffffffffffffffffffffffffffffffffffff1916817bffffffffffffffffffffffffffffffffffffffffffffffffffffffff191614611d5857836040517f64a0ae92000000000000000000000000000000000000000000000000000000008152600401611d4f9190612618565b60405180910390fd5b505b5050505050565b606060405180602001604052806000815250905090565b6060611d83826114a6565b506000611d8e611d61565b90506000815111611dae5760405180602001604052806000815250611dd9565b80611db884612111565b604051602001611dc9929190613259565b6040516020818303038152906040525b915050919050565b60007f01ffc9a7000000000000000000000000000000000000000000000000000000007bffffffffffffffffffffffffffffffffffffffffffffffffffffffff1916827bffffffffffffffffffffffffffffffffffffffffffffffffffffffff1916149050919050565b60006002600083815260200190815260200160002060009054906101000a900473ffffffffffffffffffffffffffffffffffffffff169050919050565b8080611ec15750600073ffffffffffffffffffffffffffffffffffffffff168273ffffffffffffffffffffffffffffffffffffffff1614155b15611ff5576000611ed1846114a6565b9050600073ffffffffffffffffffffffffffffffffffffffff168373ffffffffffffffffffffffffffffffffffffffff1614158015611f3c57508273ffffffffffffffffffffffffffffffffffffffff168173ffffffffffffffffffffffffffffffffffffffff1614155b8015611f4f5750611f4d81846112aa565b155b15611f9157826040517fa9fbf51f000000000000000000000000000000000000000000000000000000008152600401611f889190612618565b60405180910390fd5b8115611ff357838573ffffffffffffffffffffffffffffffffffffffff168273ffffffffffffffffffffffffffffffffffffffff167f8c5be1e5ebec7d5bd14f71427d1e84f3dd0314c0f7b2291e5b200ac8c7c3b92560405160405180910390a45b505b836004600085815260200190815260200160002060006101000a81548173ffffffffffffffffffffffffffffffffffffffff021916908373ffffffffffffffffffffffffffffffffffffffff16021790555050505050565b6120588383836121df565b61210c57600073ffffffffffffffffffffffffffffffffffffffff168373ffffffffffffffffffffffffffffffffffffffff16036120cd57806040517f7e2732890000000000000000000000000000000000000000000000000000000081526004016120c491906127ea565b60405180910390fd5b81816040517f177e802f000000000000000000000000000000000000000000000000000000008152600401612103929190613360565b60405180910390fd5b505050565b606060006001612120846122a0565b01905060008167ffffffffffffffff81111561213f5761213e612a35565b5b6040519080825280601f01601f1916602001820160405280156121715781602001600182028036833780820191505090505b509050600082602083010190505b6001156121d4578080600190039150507f3031323334353637383961626364656600000000000000000000000000000000600a86061a8153600a85816121c8576121c7613389565b5b0494506000850361217f575b819350505050919050565b60008073ffffffffffffffffffffffffffffffffffffffff168373ffffffffffffffffffffffffffffffffffffffff161415801561229757508273ffffffffffffffffffffffffffffffffffffffff168473ffffffffffffffffffffffffffffffffffffffff161480612258575061225784846112aa565b5b8061229657508273ffffffffffffffffffffffffffffffffffffffff1661227e8361152e565b73ffffffffffffffffffffffffffffffffffffffff16145b5b90509392505050565b600080600090507a184f03e93ff9f4daa797ed6e38ed64bf6a1f01000000000000000083106122fe577a184f03e93ff9f4daa797ed6e38ed64bf6a1f01000000000000000083816122f4576122f3613389565b5b0492506040810190505b6d04ee2d6d415b85acef8100000000831061233b576d04ee2d6d415b85acef8100000000838161233157612330613389565b5b0492506020810190505b662386f26fc10000831061236a57662386f26fc1000083816123605761235f613389565b5b0492506010810190505b6305f5e1008310612393576305f5e100838161238957612388613389565b5b0492506008810190505b61271083106123b85761271083816123ae576123ad613389565b5b0492506004810190505b606483106123db57606483816123d1576123d0613389565b5b0492506002810190505b600a83106123ea576001810190505b80915050919050565b6000604051905090565b600080fd5b600080fd5b60007fffffffff0000000000000000000000000000000000000000000000000000000082169050919050565b61243c81612407565b811461244757600080fd5b50565b60008135905061245981612433565b92915050565b600060208284031215612475576124746123fd565b5b60006124838482850161244a565b91505092915050565b60008115159050919050565b6124a18161248c565b82525050565b60006020820190506124bc6000830184612498565b92915050565b600081519050919050565b600082825260208201905092915050565b60005b838110156124fc5780820151818401526020810190506124e1565b60008484015250505050565b6000601f19601f8301169050919050565b6000612524826124c2565b61252e81856124cd565b935061253e8185602086016124de565b61254781612508565b840191505092915050565b6000602082019050818103600083015261256c8184612519565b905092915050565b6000819050919050565b61258781612574565b811461259257600080fd5b50565b6000813590506125a48161257e565b92915050565b6000602082840312156125c0576125bf6123fd565b5b60006125ce84828501612595565b91505092915050565b600073ffffffffffffffffffffffffffffffffffffffff82169050919050565b6000612602826125d7565b9050919050565b612612816125f7565b82525050565b600060208201905061262d6000830184612609565b92915050565b61263c816125f7565b811461264757600080fd5b50565b60008135905061265981612633565b92915050565b60008060408385031215612676576126756123fd565b5b60006126848582860161264a565b925050602061269585828601612595565b9150509250929050565b6000819050919050565b6126b28161269f565b81146126bd57600080fd5b50565b6000813590506126cf816126a9565b92915050565b600080fd5b600080fd5b600080fd5b60008083601f8401126126fa576126f96126d5565b5b8235905067ffffffffffffffff811115612717576127166126da565b5b602083019150836001820283011115612733576127326126df565b5b9250929050565b60008060008060608587031215612754576127536123fd565b5b6000612762878288016126c0565b945050602085013567ffffffffffffffff81111561278357612782612402565b5b61278f878288016126e4565b935093505060406127a2878288016126c0565b91505092959194509250565b6000602082840312156127c4576127c36123fd565b5b60006127d2848285016126c0565b91505092915050565b6127e481612574565b82525050565b60006020820190506127ff60008301846127db565b92915050565b60008060006060848603121561281e5761281d6123fd565b5b600061282c8682870161264a565b935050602061283d8682870161264a565b925050604061284e86828701612595565b9150509250925092565b600080600080600060808688031215612874576128736123fd565b5b6000612882888289016126c0565b95505060206128938882890161264a565b945050604086013567ffffffffffffffff8111156128b4576128b3612402565b5b6128c0888289016126e4565b935093505060606128d3888289016126c0565b9150509295509295909350565b6000602082840312156128f6576128f56123fd565b5b60006129048482850161264a565b91505092915050565b6129168161248c565b811461292157600080fd5b50565b6000813590506129338161290d565b92915050565b600080604083850312156129505761294f6123fd565b5b600061295e8582860161264a565b925050602061296f85828601612924565b9150509250929050565b600080604083850312156129905761298f6123fd565b5b600061299e858286016126c0565b92505060206129af85828601612595565b9150509250929050565b6129c28161269f565b82525050565b600060c0820190506129dd60008301896129b9565b81810360208301526129ef8188612519565b90506129fe60408301876127db565b612a0b6060830186612498565b612a186080830185612609565b612a2560a0830184612609565b979650505050505050565b600080fd5b7f4e487b7100000000000000000000000000000000000000000000000000000000600052604160045260246000fd5b612a6d82612508565b810181811067ffffffffffffffff82111715612a8c57612a8b612a35565b5b80604052505050565b6000612a9f6123f3565b9050612aab8282612a64565b919050565b600067ffffffffffffffff821115612acb57612aca612a35565b5b612ad482612508565b9050602081019050919050565b82818337600083830152505050565b6000612b03612afe84612ab0565b612a95565b905082815260208101848484011115612b1f57612b1e612a30565b5b612b2a848285612ae1565b509392505050565b600082601f830112612b4757612b466126d5565b5b8135612b57848260208601612af0565b91505092915050565b60008060008060808587031215612b7a57612b796123fd565b5b6000612b888782880161264a565b9450506020612b998782880161264a565b9350506040612baa87828801612595565b925050606085013567ffffffffffffffff811115612bcb57612bca612402565b5b612bd787828801612b32565b91505092959194509250565b60008060408385031215612bfa57612bf96123fd565b5b6000612c088582860161264a565b9250506020612c198582860161264a565b9150509250929050565b7f4e487b7100000000000000000000000000000000000000000000000000000000600052602260045260246000fd5b60006002820490506001821680612c6a57607f821691505b602082108103612c7d57612c7c612c23565b5b50919050565b7f6e6f742069737375657200000000000000000000000000000000000000000000600082015250565b6000612cb9600a836124cd565b9150612cc482612c83565b602082019050919050565b60006020820190508181036000830152612ce881612cac565b9050919050565b7f736572696573206d697373696e67000000000000000000000000000000000000600082015250565b6000612d25600e836124cd565b9150612d3082612cef565b602082019050919050565b60006020820190508181036000830152612d5481612d18565b9050919050565b7f4e487b7100000000000000000000000000000000000000000000000000000000600052601160045260246000fd5b6000612d9582612574565b9150612da083612574565b9250828201905080821115612db857612db7612d5b565b5b92915050565b60008190508160005260206000209050919050565b60006020601f8301049050919050565b600082821b905092915050565b600060088302612e207fffffffffffffffffffffffffffffffffffffffffffffffffffffffffffffffff82612de3565b612e2a8683612de3565b95508019841693508086168417925050509392505050565b6000819050919050565b6000612e67612e62612e5d84612574565b612e42565b612574565b9050919050565b6000819050919050565b612e8183612e4c565b612e95612e8d82612e6e565b848454612df0565b825550505050565b600090565b612eaa612e9d565b612eb5818484612e78565b505050565b5b81811015612ed957612ece600082612ea2565b600181019050612ebb565b5050565b601f821115612f1e57612eef81612dbe565b612ef884612dd3565b81016020851015612f07578190505b612f1b612f1385612dd3565b830182612eba565b50505b505050565b600082821c905092915050565b6000612f4160001984600802612f23565b1980831691505092915050565b6000612f5a8383612f30565b9150826002028217905092915050565b612f73826124c2565b67ffffffffffffffff811115612f8c57612f8b612a35565b5b612f968254612c52565b612fa1828285612edd565b600060209050601f831160018114612fd45760008415612fc2578287015190505b612fcc8582612f4e565b865550613034565b601f198416612fe286612dbe565b60005b8281101561300a57848901518255600182019150602085019450602081019050612fe5565b868310156130275784890151613023601f891682612f30565b8355505b6001600288020188555050505b505050505050565b600061304883856124cd565b9350613055838584612ae1565b61305e83612508565b840190509392505050565b600060608201905061307e60008301876127db565b818103602083015261309181858761303c565b90506130a060408301846129b9565b95945050505050565b60006060820190506130be6000830186612609565b6130cb60208301856127db565b6130d86040830184612609565b949350505050565b7f7365726965732065786973747300000000000000000000000000000000000000600082015250565b6000613116600d836124cd565b9150613121826130e0565b602082019050919050565b6000602082019050818103600083015261314581613109565b9050919050565b600061315782612574565b91507fffffffffffffffffffffffffffffffffffffffffffffffffffffffffffffffff820361318957613188612d5b565b5b600182019050919050565b6000819050919050565b60006131b96131b46131af84613194565b612e42565b612574565b9050919050565b6131c98161319e565b82525050565b60006080820190506131e460008301886131c0565b81810360208301526131f781868861303c565b905061320660408301856129b9565b61321360608301846127db565b9695505050505050565b600081905092915050565b6000613233826124c2565b61323d818561321d565b935061324d8185602086016124de565b80840191505092915050565b60006132658285613228565b91506132718284613228565b91508190509392505050565b600081519050919050565b600082825260208201905092915050565b60006132a48261327d565b6132ae8185613288565b93506132be8185602086016124de565b6132c781612508565b840191505092915050565b60006080820190506132e76000830187612609565b6132f46020830186612609565b61330160408301856127db565b81810360608301526133138184613299565b905095945050505050565b60008151905061332d81612433565b92915050565b600060208284031215613349576133486123fd565b5b60006133578482850161331e565b91505092915050565b60006040820190506133756000830185612609565b61338260208301846127db565b9392505050565b7f4e487b7100000000000000000000000000000000000000000000000000000000600052601260045260246000fdfea26469706673582212201f04980a5c3b459197a52eb8c7f23c7a0d7992ea50b2a3310e4ccdb317261e1b64736f6c63430008170033",
  "linkReferences": {},
  "deployedLinkReferences": {}
}